:100000000C943E000C9453000C9453000C94530039
:100010000C9453000C9453000C9453000C94530014
:100020000C9453000C9453000C9453000C94530004
:100030000C9453000C9453000C9453000C945300F4
:100040000C9453000C9453000C9453000C945300E4
:100050000C9453000C9453000C9453000C945300D4
:100060000C9453000C9453000C9453000C945300C4
:100070000C9453000C9453000C94530011241FBE95
:10008000CFEFD0E1DEBFCDBF11E0A0E0B1E0EEECFC
:10009000F1E002C005900D92A43BB107D9F70E9490
:1000A000DB000C94E5000C940000CF93DF9321E07B
:1000B00030E002C0220F331F4A95E2F735B1E22F3C
:1000C000E095E32335B1232BAB01440F551FDA0133
:1000D000A60FB71FE5B930E038B9432F4F5F48B9D5
:1000E000532F5E5F58B93D5F38B9342F4E3FA1F7AB
:1000F000EC0144E00990000CE0F42EC0415059F4AA
:10010000099044E025B90000E5B9119769F0000CA9
:1001100080F422C000C0E5B9000025B90000E5B9AF
:100120000000000CB0F004C000C0000025B93FC0C2
:10013000E5B9000025B9000CE5B900F7415041F5DB
:10014000099044E0000025B9119759F1000C08F01E
:10015000EFCF0000E5B9000025B9000C70F0415068
:10016000C9F6099044E0E5B9000025B90000E5B9F9
:100170001197D1F2000CE8F6EFCF415049F4099005
:10018000E5B944E025B9119761F0000C10F3D0CF28
:100190000000E5B9000025B900C00000000CC8F25D
:1001A000C7CF00C00000E5B9000025B900C00000BD
:1001B000DF91CF91089588E084B943E06CE370E06B
:0E01C00080E091E00E945500F8CFF894FFCF48
:1001CE0000000A000A000A000000000A000A000AE5
:1001DE00000000000A000A000A000000000A000ADF
:1001EE00000A000000000A000A000A000000000ACF
:1001FE00000A000A000000000A000A000A000000BF
:10020E00000A000A000A000000000A000A000A00A4
:10021E000000000A000A000A000000000A000A009E
:10022E000A000000000A000A000A000000000A008E
:10023E000A000A000000000A000A000A000000007E
:10024E000A000A000A000000000A000A000A000064
:10025E0000000A000A000A000000000A000A000A54
:10026E00000000000A000A000A000000000A000A4E
:04027E00000A000072
:00000001FF
